:100000000C9434000C9446000C9446000C9446006A
:100010000C9446000C9446000C9446000C94460048
:100020000C9446000C9446000C9446000C94460038
:100030000C9446000C9446000C9448000C94460026
:100040000C9446000C9446000C9446000C94460018
:100050000C9446000C9446000C9446000C94460008
:100060000C9446000C94460011241FBECFEFD8E03C
:10007000DEBFCDBF11E0A0E0B1E001C01D92A43011
:10008000B107E1F70E947A000C949C000C940000E8
:100090001F920F920FB60F9211248F939F93AF93DD
:1000A000BF938091000190910101A0910201B09154
:1000B00003010196A11DB11D8093000190930101E0
:1000C000A0930201B0930301BF91AF919F918F91D3
:1000D0000F900FBE0F901F901895645F7140804085
:1000E000904011F080E0089585B190E2892785B9AC
:1000F00081E0089582E084BD93E095BD99EF97BDBE
:1001000080936E007894259A2D9A809100019091A9
:100110000101A0910201B091030120E2845F9140AE
:10012000A040B04041F485B1822785B980E090E0DD
:0C013000A0E0B0E0F3CFFFCFF894FFCFC9
:00000001FF
